{
  "contractName": "Market",
  "abi": [
    {
      "inputs": [],
      "stateMutability": "nonpayable",
      "type": "constructor"
    },
    {
      "anonymous": false,
      "inputs": [
        {
          "indexed": false,
          "internalType": "uint256",
          "name": "amount",
          "type": "uint256"
        },
        {
          "indexed": false,
          "internalType": "uint256",
          "name": "price",
          "type": "uint256"
        },
        {
          "indexed": false,
          "internalType": "address",
          "name": "from",
          "type": "address"
        }
      ],
      "name": "OrderPlaced",
      "type": "event"
    },
    {
      "inputs": [],
      "name": "TAX_FEE_DENOMINATOR",
      "outputs": [
        {
          "internalType": "uint8",
          "name": "",
          "type": "uint8"
        }
      ],
      "stateMutability": "view",
      "type": "function",
      "constant": true
    },
    {
      "inputs": [],
      "name": "TAX_FEE_NUMERATOR",
      "outputs": [
        {
          "internalType": "uint8",
          "name": "",
          "type": "uint8"
        }
      ],
      "stateMutability": "view",
      "type": "function",
      "constant": true
    },
    {
      "inputs": [
        {
          "internalType": "uint256",
          "name": "",
          "type": "uint256"
        }
      ],
      "name": "orders",
      "outputs": [
        {
          "internalType": "uint256",
          "name": "amount",
          "type": "uint256"
        },
        {
          "internalType": "address",
          "name": "from",
          "type": "address"
        },
        {
          "internalType": "uint256",
          "name": "price",
          "type": "uint256"
        },
        {
          "internalType": "enum Market.OrderType",
          "name": "orderType",
          "type": "uint8"
        }
      ],
      "stateMutability": "view",
      "type": "function",
      "constant": true
    },
    {
      "inputs": [],
      "name": "owner",
      "outputs": [
        {
          "internalType": "address",
          "name": "",
          "type": "address"
        }
      ],
      "stateMutability": "view",
      "type": "function",
      "constant": true
    },
    {
      "inputs": [
        {
          "internalType": "address",
          "name": "",
          "type": "address"
        }
      ],
      "name": "shares",
      "outputs": [
        {
          "internalType": "uint256",
          "name": "",
          "type": "uint256"
        }
      ],
      "stateMutability": "view",
      "type": "function",
      "constant": true
    },
    {
      "inputs": [],
      "name": "getShares",
      "outputs": [
        {
          "internalType": "uint256",
          "name": "",
          "type": "uint256"
        }
      ],
      "stateMutability": "view",
      "type": "function",
      "constant": true
    },
    {
      "inputs": [
        {
          "internalType": "uint256",
          "name": "price",
          "type": "uint256"
        }
      ],
      "name": "OrderBuy",
      "outputs": [],
      "stateMutability": "payable",
      "type": "function",
      "payable": true
    },
    {
      "inputs": [
        {
          "internalType": "uint256",
          "name": "tradeId",
          "type": "uint256"
        }
      ],
      "name": "TradeBuy",
      "outputs": [],
      "stateMutability": "nonpayable",
      "type": "function"
    },
    {
      "inputs": [
        {
          "internalType": "uint256",
          "name": "price",
          "type": "uint256"
        },
        {
          "internalType": "uint256",
          "name": "amount",
          "type": "uint256"
        }
      ],
      "name": "OrderSell",
      "outputs": [],
      "stateMutability": "nonpayable",
      "type": "function"
    },
    {
      "inputs": [
        {
          "internalType": "uint256",
          "name": "orderId",
          "type": "uint256"
        }
      ],
      "name": "TradeSell",
      "outputs": [],
      "stateMutability": "payable",
      "type": "function",
      "payable": true
    }
  ],
  "bytecode": "0x60806040526000805460a060020a61ffff021916756401000000000000000000000000000000000000000017815560035534801561003c57600080fd5b5060008054600160a060020a031916339081178255815260016020526040902060649055610b138061006f6000396000f3fe6080604052600436106100ae576000357c010000000000000000000000000000000000000000000000000000000090048063a85c38ef11610076578063a85c38ef14610158578063ce7c2ac2146101b8578063d69b2f71146101f3578063d73fe0aa14610237578063e530e1c91461025957600080fd5b806309fb7cca146100b3578063364b219b146100c85780637a236942146100db5780637d403c7d146100fb5780638da5cb5b1461011b575b600080fd5b6100c66100c136600461096b565b61028c565b005b6100c66100d636600461096b565b61044b565b3480156100e757600080fd5b506100c66100f6366004610984565b61064e565b34801561010757600080fd5b506100c661011636600461096b565b61068e565b34801561012757600080fd5b5060005461013b90600160a060020a031681565b604051600160a060020a0390911681526020015b60405180910390f35b34801561016457600080fd5b506101a861017336600461096b565b600260208190526000918252604090912080546001820154928201546003909201549092600160a060020a0316919060ff1684565b60405161014f94939291906109a6565b3480156101c457600080fd5b506101e56101d336600461093b565b60016020526000908152604090205481565b60405190815260200161014f565b3480156101ff57600080fd5b506000546102259074010000000000000000000000000000000000000000900460ff1681565b60405160ff909116815260200161014f565b34801561024357600080fd5b50336000908152600160205260409020546101e5565b34801561026557600080fd5b50600054610225907501000000000000000000000000000000000000000000900460ff1681565b600034116102e45760405160e560020a62461bcd02815260206004820152601260248201527f416d6d6f756e742063616e27742062652030000000000000000000000000000060448201526064015b60405180910390fd5b60006102f08234610a0b565b9050600181116103455760405160e560020a62461bcd02815260206004820152601860248201527f746865206d696e696d756d206973206f6e65207368617265000000000000000060448201526064016102db565b604080516080810182528281523360208201529081016103658385610a41565b815260200160005b90526003805460009081526002602081815260409283902085518155908501516001808301805473ffffffffffffffffffffffffffffffffffffffff1916600160a060020a0390931692909217909155928501518183015560608501519381018054919493909260ff199092169184908111156103ec576103ec610ac4565b021790555050600380549150600061040383610a77565b90915550506040805182815260208101849052338183015290517ff4ae361d67df8ff151337122b70e54414e64545e71dd154d79408677451fd8749181900360600190a15050565b60008181526002602052604090206001810154600160a060020a031661047057600080fd5b806002015434146104ee576040805160e560020a62461bcd0281526020600482015260248101919091527f596f75206469646e27742073656e6420656e6f756768286f7220746f206d756360448201527f682920657468657265756d20666f722074686973207472616e73616374696f6e60648201526084016102db565b600080546105329060ff7501000000000000000000000000000000000000000000820481169174010000000000000000000000000000000000000000900416610a1f565b82546105419160ff1690610a41565b9050808260020160008282546105579190610a60565b90915550508154600180840154600160a060020a0316600090815260209190915260408120805490919061058c908490610a60565b909155505060008054604051600160a060020a039091169183156108fc02918491818181858888f193505050501580156105ca573d6000803e3d6000fd5b5060018201546002830154604051600160a060020a039092169181156108fc0291906000818181858888f1935050505015801561060b573d6000803e3d6000fd5b508154336000908152600160205260408120805490919061062d9084906109f3565b90915550506003820180546002919060ff19166001835b0217905550505050565b3360009081526001602052604090205481111561066a57600080fd5b6040805160808101825282815233602082015290810183905260608101600161036d565b60008181526002602052604090206001810154600160a060020a03166106f95760405160e560020a62461bcd02815260206004820152601960248201527f74686973206973206e6f7420612076616c6964206f726465720000000000000060448201526064016102db565b80543360009081526001602052604090205410156107825760405160e560020a62461bcd02815260206004820152603160248201527f596f7520646f6e2774206861766520656e6f7567682073686172657320666f7260448201527f2074686973207472616e73616374696f6e00000000000000000000000000000060648201526084016102db565b6001600382015460ff16600281111561079d5761079d610ac4565b14156107ee5760405160e560020a62461bcd02815260206004820152601a60248201527f4f72646572206e6565647320746f20626520747970652042757900000000000060448201526064016102db565b600080546108329060ff7501000000000000000000000000000000000000000000820481169174010000000000000000000000000000000000000000900416610a1f565b60ff1682600201546108449190610a41565b90508082600001600082825461085a9190610a60565b909155505081543360009081526001602052604081208054909190610880908490610a60565b90915550508154600180840154600160a060020a031660009081526020919091526040812080549091906108b59084906109f3565b909155505060008054604051600160a060020a039091169183156108fc02918491818181858888f193505050501580156108f3573d6000803e3d6000fd5b506002820154604051339180156108fc02916000818181858888f19350505050158015610924573d6000803e3d6000fd5b506003820180546002919060ff1916600183610644565b60006020828403121561094d57600080fd5b8135600160a060020a038116811461096457600080fd5b9392505050565b60006020828403121561097d57600080fd5b5035919050565b6000806040838503121561099757600080fd5b50508035926020909101359150565b848152600160a060020a03841660208201526040810183905260808101600383106109e45760e060020a634e487b7102600052602160045260246000fd5b82606083015295945050505050565b60008219821115610a0657610a06610a92565b500190565b600082610a1a57610a1a610aab565b500490565b600060ff831680610a3257610a32610aab565b8060ff84160491505092915050565b6000816000190483118215151615610a5b57610a5b610a92565b500290565b600082821015610a7257610a72610a92565b500390565b6000600019821415610a8b57610a8b610a92565b5060010190565b60e060020a634e487b7102600052601160045260246000fd5b60e060020a634e487b7102600052601260045260246000fd5b60e060020a634e487b7102600052602160045260246000fdfea26469706673582212200601402e3dc4917ddeef157aa627b3c902750cc20371a25eaf0b7f72095b95fc64736f6c63430008050033",
  "immutableReferences": {},
  "source": "contract Market {\r\n    address public owner;\r\n    uint8 public TAX_FEE_NUMERATOR = 1;\r\n    uint8 public TAX_FEE_DENOMINATOR = 100;\r\n    enum OrderType {Buy, Sell, Done}\r\n    mapping(address => uint256) public shares;\r\n    mapping(uint256 => Order) public orders;\r\n    uint256 counter = 0;\r\n    struct Order {\r\n        uint256 amount;\r\n        address from;\r\n        uint256 price;\r\n        OrderType orderType;\r\n    }\r\n\r\n    constructor() {\r\n        owner = msg.sender;\r\n        shares[msg.sender] = 100;\r\n    }\r\n\r\n    event OrderPlaced(uint256 amount, uint256 price, address from);\r\n\r\n    function getShares() public view returns (uint256) {\r\n        return shares[msg.sender];\r\n    }\r\n\r\n    //Trade buy - sell if you have\r\n    //Trade sell - buy if you have\r\n    //Order buy - order buy define the price per share and amount\r\n    //Order sell order sell\r\n    function OrderBuy(uint256 price) public payable {\r\n        require(msg.value > 0, \"Ammount can't be 0\");\r\n        uint256 amount = msg.value / price;\r\n        require(amount > 1, \"the minimum is one share\");\r\n        orders[counter] = Order(\r\n            amount,\r\n            msg.sender,\r\n            price * amount,\r\n            OrderType.Buy\r\n        );\r\n        counter++;\r\n        emit OrderPlaced(amount, price, msg.sender);\r\n    }\r\n\r\n    function TradeBuy(uint256 tradeId) public {\r\n        Order storage order = orders[tradeId];\r\n        require(order.from != address(0), \"this is not a valid order\");\r\n        require(\r\n            shares[msg.sender] >= order.amount,\r\n            \"You don't have enough shares for this transaction\"\r\n        );\r\n        require(\r\n            order.orderType != OrderType.Sell,\r\n            \"Order needs to be type Buy\"\r\n        );\r\n        uint256 fee = order.price * (TAX_FEE_NUMERATOR / TAX_FEE_DENOMINATOR);\r\n        order.amount -= fee;\r\n        shares[msg.sender] -= order.amount;\r\n        shares[order.from] += order.amount;\r\n        payable(owner).transfer(fee);\r\n        payable(msg.sender).transfer(order.price);\r\n        order.orderType = OrderType.Done;\r\n    }\r\n\r\n    function OrderSell(uint256 price, uint256 amount) public {\r\n        require(shares[msg.sender] >= amount);\r\n        orders[counter] = Order(amount, msg.sender, price, OrderType.Sell);\r\n        counter++;\r\n        emit OrderPlaced(amount, price, msg.sender);\r\n    }\r\n\r\n    function TradeSell(uint256 orderId) public payable {\r\n        Order storage order = orders[orderId];\r\n        require(order.from != address(0));\r\n        require(\r\n            msg.value == order.price,\r\n            \"You didn't send enough(or to much) ethereum for this transaction\"\r\n        );\r\n        uint256 fee = order.amount * (TAX_FEE_NUMERATOR / TAX_FEE_DENOMINATOR);\r\n        order.price -= fee;\r\n        shares[order.from] -= order.amount;\r\n        payable(owner).transfer(fee);\r\n        payable(order.from).transfer(order.price);\r\n        shares[msg.sender] += order.amount;\r\n        order.orderType = OrderType.Done;\r\n    }\r\n}\r\n",
  "sourcePath": "C:/Users/sakac/Desktop/TradeMarket/truffle/contracts/Market.sol",
  "compiler": {
    "name": "solc",
    "version": "0.8.5+commit.a4f2e591.Emscripten.clang"
  },
  "schemaVersion": "3.3.4",
  "updatedAt": "2021-06-17T15:37:16.205Z",
  "networkType": "ethereum",
  "devdoc": {
    "kind": "dev",
    "methods": {},
    "version": 1
  },
  "userdoc": {
    "kind": "user",
    "methods": {},
    "version": 1
  }
}